:030000000202C435
:0C02C400787FE4F6D8FD75812002030B62
:0A043B00C0F9A4B0999282F88090F5
:10040F0041000800420002000042000900004100C4
:08041F000100C10041000000D2
:1003C700D2C1D2C2D2C3D2C4900008E0FF2404F540
:1003D70082E43400F583E090043B93F580EF1460EA
:1003E7000E14600F1460102403700EC2C1800AC27D
:1003F700C28006C2C38002C2C4900008E004F0E0D5
:08040700C394044002E4F0225A
:10042800538E7F5389F0E4F58A758CEEC28DD28C99
:03043800D2A92224
:03000B000203509D
:10035000C0E0C083C082C0D075D000C000C006C05D
:010360000795
:10036100900000E004F0E0C3940D4048E4F09000F8
:100371000FE0FEA3E0FF90000AE02FF0900009E0FB
:100381003EF0900001E004F0E0C39410402690009C
:1003910009E0C4F854F0C868FFA3E0C4540F4890C2
:1003A1000002CFF0A3EFF0900009E4F0A3F0900079
:0703B10001F0D2001203C7A6
:0F03B800D007D006D000D0D0D082D083D0E03292
:10017E007596FFE4F59575B4FFF5B37594FFF59399
:10018E00C2C1C2C2C2C3C2C412000E120428D2AF70
:10019E003000FDC200900002E0FEA3E0FF7C137D64
:1001AE0088120151E47BFF7A03F9F81200BF900028
:1001BE000BEEF0A3EFF090000BE0FAA3E0FB7C0354
:1001CE007DE8FFAE0212002E7C007D0A12002E90FA
:1001DE000004EDF07C007D64AF03AE0212002E7CB5
:1001EE00007D0A12002EA3EDF090000BA3E07C0020
:1001FE007D0AFFAE0212002E7C007D0A12002E90A8
:10020E000006EDF07C007D0AAF03AE0212002EA3B5
:05021E00EDF002019E5D
:10000E00E4900011F090000DF0A3F0A3F0A3F075B2
:0D001E009D03F5BDF5BE7488F5BCD2AD2282
:03002B00020223AB
:10022300C0E0C083C082C0D075D000C000C005C08C
:1002330006C00753BCEFAFBD900011E0FD25E024DD
:100243000DF582E43400F583E4F0A3EFF0ED25E04F
:10025300240DF582E43400F583C083C082E0FEA35D
:10026300E07802C333CE33CED8F9FFD082D083EE09
:10027300F0A3EFF0ED25E0240DF582E43400F583DF
:10028300C083C082E0FEA3E0FFE5BE5403FDEF4D53
:10029300FFD082D083EEF0A3EFF0900011E004F0E2
:1002A300E0C394024002E4F0900011E044A8F5BCDE
:1002B300D007D006D005D000D0D0D082D083D0E0F4
:0102C3003208
:1002D00002017EE493A3F8E493A34003F68001F2C5
:1002E00008DFF48029E493A3F85407240CC8C3332F
:1002F000C4540F4420C8834004F456800146F6DFFE
:10030000E4800B010204081020408090040FE47E7A
:10031000019360BCA3FF543F30E509541FFEE493F2
:10032000A360010ECF54C025E060A840B8E493A3B9
:10033000FAE493A3F8E493A3C8C582C8CAC583CAE4
:10034000F0A3C8C582C8CAC583CADFE9DEE780BE9C
:0104270000D4
:10002E00BC000BBE0029EF8DF084FFADF022E4CCB6
:10003E00F875F008EF2FFFEE33FEEC33FCEE9DEC7F
:10004E00984005FCEE9DFE0FD5F0E9E4CEFD22EDC5
:10005E00F8F5F0EE8420D21CFEADF075F008EF2F0F
:10006E00FFED33FD4007985006D5F0F222C398FD00
:05007E000FD5F0EA229D
:1000830075F008758200EF2FFFEE33FECD33CDCC34
:1000930033CCC58233C5829BED9AEC99E5829840B7
:1000A3000CF582EE9BFEED9AFDEC99FC0FD5F0D694
:1000B300E4CEFBE4CDFAE4CCF9A88222B800C1B9BE
:1000C3000059BA002DEC8BF084CFCECDFCE5F0CBFC
:1000D300F97818EF2FFFEE33FEED33FDEC33FCEB35
:1000E30033FB10D703994004EB99FB0FD8E5E4F9F0
:1000F300FA227818EF2FFFEE33FEED33FDEC33FCDD
:10010300C933C910D7059BE99A4007EC9BFCE99AD0
:10011300F90FD8E0E4C9FAE4CCFB2275F010EF2F15
:10012300FFEE33FEED33FDCC33CCC833C810D70715
:100133009BEC9AE899400AED9BFDEC9AFCE899F850
:0E0143000FD5F0DAE4CDFBE4CCFAE4C8F922E3
:10015100EC8EF0A4CCC5F0CCCDF8EFA4CEC5F02D3B
:10016100FDE43CFCE8A42EC8C5F03DFDE43CFCEFF9
:0D017100A4FFE5F028FEE43DFDE43CFC2287
:00000001FF
