:030000000200CE2D
:0C00CE00787FE4F6D8FD7581070201156B
:0600030068656C6C6F00E3
:0400090041000C00A6
:10015A007596FFE4F595900000F090000BF0759805
:10016A0050438E40538EFE53890F758BE0758DFE7A
:0A017A00C2ABD2ACD28ED2AF80FE31
:03002300020026B2
:0F002600C0E0C083C082C0D075D000C006C00744
:10003500309863C298AF9990000CE0FE900003934E
:100045006F704EEEC39405504890000CE004F074B8
:10005500012EF582E43400F583EFF090000CE064A6
:100065000570339000067477F0A3746FF0A3747273
:10007500F0A3746CF0A37464F0A37405F090000011
:10008500E4F0E02406F582E43400F583E0F5998098
:100095000090000CE4F0309923C299900000E00430
:1000A500F090000BE0FF900000E0FEC39F500D7440
:0C00B500062EF582E43400F583E0F59996
:0D00C100D007D006D0D0D082D083D0E0325E
:1000DA0002015AE493A3F8E493A34003F68001F2E1
:1000EA0008DFF48029E493A3F85407240CC8C33327
:1000FA00C4540F4420C8834004F456800146F6DFF6
:10010A00E4800B0102040810204080900009E47E7C
:10011A00019360BCA3FF543F30E509541FFEE493EA
:10012A00A360010ECF54C025E060A840B8E493A3B1
:10013A00FAE493A3F8E493A3C8C582C8CAC583CADC
:10014A00F0A3C8C582C8CAC583CADFE9DEE780BE94
:01000D0000F2
:00000001FF
