:0D02CA007596FFE4F5951202B7D2AF80FEE5
:10000E004200230000420025000042002900004269
:04001E0000270000B7
:1002B700438E805389F0758AAE758CFBC28DD28CC4
:0302C700D2A92297
:03000B00020026CA
:10002600C0E0C0F0C083C082C0D075D000C000C0A0
:1000360002C003C004C005C006C00790002AE00441
:10004600F07006900029E004F0900029E0FEA3E09D
:10005600FF7C007D641201DF900029ECF0A3EDF037
:10006600C3900026E09463900025E064809480406D
:1000760022E4F0A3F0900029F0A3F0900027E070AE
:1000860002A3E070047F0180027F00900027E4F065
:10009600A3EFF0900027E0FEA3E0FF4E704890002B
:1000A60025E0FCA3E0FD900029E0FAA3E0FBD39D48
:1000B600EC6480F8EA648098400375A0FFC3EB9D6A
:1000C600EC6480F8EA648098500375A000C3EB9452
:1000D60063EA64809480400E900026E004F0700687
:1000E600900025E004F0EF64014E7048900025E092
:1000F600FEA3E0FF900029E0FCA3E0FDD39FEE64A1
:1001060080F8EC648098400375A000C3ED9FEE6410
:1001160080F8EC648098500375A0FFC3ED9463ECFF
:1001260064809480400E900026E004F070069000F3
:1001360025E004F0D007D006D005D004D003D002C5
:0D014600D000D0D0D082D083D0F0D0E032F5
:0300230002026A6C
:0F026A00C0E0C083C082C0D075D000C006C007FE
:10027900309808C29890002BE599F0309923C299DB
:10028900900022E004F0900020E0FF900022E0FEC0
:10029900D39F500D74002EF582E43400F583E0F508
:0102A90099BB
:0D02AA00D007D006D0D0D082D083D0E03273
:03000000020153A7
:0C015300787FE4F6D8FD75810702019A60
:1001DF00C2D5EC30E709B2D5E4C39DFDE49CFCEE3B
:1001EF0030E715B2D5E4C39FFFE49EFE120215C39C
:1001FF00E49DFDE49CFC800312021530D507C3E497
:06020F009FFFE49EFE22A9
:10015F000202CAE493A3F8E493A34003F68001F2EA
:10016F0008DFF48029E493A3F85407240CC8C333A1
:10017F00C4540F4420C8834004F456800146F6DF70
:10018F00E4800B010204081020408090000EE47EF2
:10019F00019360BCA3FF543F30E509541FFEE49365
:1001AF00A360010ECF54C025E060A840B8E493A32C
:1001BF00FAE493A3F8E493A3C8C582C8CAC583CA57
:1001CF00F0A3C8C582C8CAC583CADFE9DEE780BE0F
:0100220000DD
:10021500BC000BBE0029EF8DF084FFADF022E4CCCD
:10022500F875F008EF2FFFEE33FEEC33FCEE9DEC96
:10023500984005FCEE9DFE0FD5F0E9E4CEFD22EDDC
:10024500F8F5F0EE8420D21CFEADF075F008EF2F26
:10025500FFED33FD4007985006D5F0F222C398FD17
:050265000FD5F0EA22B4
:00000001FF
