:03000000020026D5
:0C002600787FE4F6D8FD75810702006DBC
:1001D2004A0000C0F9A4B0999282F88090410012BE
:0901E200004100110041000F0072
:1001EC00E490000AF0538E7F5389F0F58A758CEEFB
:0701FC00C28DD28CD2A922B2
:03000B000201A44B
:1001A400C0E0C083C082C0D090000AE004F0900098
:1001B400137401F090000AE0C394194002E4F09033
:0E01C40000107401F0D0D0D082D083D0E03291
:1001180090000FE0FF240BF582E43400F583E0241F
:1001280000F582E43400F583E0F580D2C1D2C2D272
:10013800C3D2C4EF14600E14600F1460102403704F
:100148000EC2C1800AC2C28006C2C38002C2C49065
:0E015800000FE004F0E0C394044002E4F02243
:100166007596FFE4F59575B4FFF5B37594FFF593B1
:10017600759850438E40538EFE53890F758BE075EC
:100186008DFEC2ABD2ACD28E1201ECD2AF90001073
:0E019600E060FAE4F0A3E060F412011880EFDC
:030023000200B226
:0F00B200C0E0C083C082C0D075D000C006C007B8
:1000C100309847C298AF99EFC394304038EFD3943A
:1000D100395032900012E0FEC394045016EF24D040
:1000E100FF740B2EF582E43400F583EFF0900012DB
:1000F100E004F0900012E0B404109000117401F0DB
:0A010100A3E4F08005900012E4F082
:0D010B00D007D006D0D0D082D083D0E03213
:10003200020166E493A3F8E493A34003F68001F27D
:1000420008DFF48029E493A3F85407240CC8C333CF
:10005200C4540F4420C8834004F456800146F6DF9E
:10006200E4800B01020408102040809001D2E47E5B
:10007200019360BCA3FF543F30E509541FFEE49393
:10008200A360010ECF54C025E060A840B8E493A35A
:10009200FAE493A3F8E493A3C8C582C8CAC583CA85
:1000A200F0A3C8C582C8CAC583CADFE9DEE780BE3D
:0101EB000013
:00000001FF
