:1002E4004A002BC0F9A4B0999282F880904200355C
:1002F400000042003700004200280000480020119E
:07030400223344556677889F
:0C000E007508D8750925D509FDD508FA3C
:01001A0022C3
:10030C00E490003CF0759850438E40538EFE538918
:0E031C000F758BE0758DFEC2ABD2ACD28E2277
:10002E007596FFE4F5957594FFF59375B4FFF5B3EA
:10003E007592FFF59112034712030C12032AC2C1E7
:10004E00C2C2C2C3C2C4D2AFE590B4DF24900028AE
:10005E00E07002A3E0701A12000EE590B4DF129069
:10006E000028E4F0A37404F0900037E4F0A37404C5
:10007E00F0E590B4EF24900028E07002A3E0701A2F
:10008E0012000EE590B4EF12900028E4F0A3740372
:10009E00F0900037E4F0A37403F0E590B4F72490E9
:1000AE000028E07002A3E0701A12000EE590B4F77B
:1000BE0012900028E4F0A37402F0900037E4F0A34D
:1000CE007402F0E590B4FB22900028E07002A3E0E9
:1000DE00701812000EE590B4FB10900028E4F0A307
:1000EE0004F0900037E4F0A304F0E590B4FF19900B
:1000FE000028E07002A3E0600F12000EE590B4FF3E
:10010E0007E4900028F0A3F0900045E07003020091
:10011E0056E4F0900037E0FEA3E0242BF582740045
:09012E003EF583E0F58002005665
:10034700E4900043F0A3F0538E7F5389F0F58A754C
:090357008CEEC28DD28CD2A922D9
:03000B000202B13D
:1002B100C0E0C083C082C0D0900044E004F0900050
:1002C100467401F0900044E0C394194007E4F090B3
:1002D100004304F09000457401F0D0D0D082D08367
:0302E100D0E03238
:0300230002026472
:0F026400C0E0C083C082C0D075D000C006C00704
:10027300309808C298900047E599F0309923C299C5
:1002830090003DE004F090002AE0FF90003DE0FE86
:10029300D39F500D74002EF582E43400F583E0F50E
:0102A30099C1
:0D02A400D007D006D0D0D082D083D0E03279
:10032A00E4900042F090003EF0A3F0A3F0A3F07531
:0D033A009D03F5BDF5BE7488F5BCD2AD2263
:03002B0002013798
:10013700C0E0C083C082C0D075D000C000C005C079
:1001470006C00753BCEFAFBD900042E0FD25E02499
:100157003EF582E43400F583E4F0A3EFF0ED25E00B
:10016700243EF582E43400F583C083C082E0FEA319
:10017700E07802C333CE33CED8F9FFD082D083EEF6
:10018700F0A3EFF0ED25E0243EF582E43400F5839B
:10019700C083C082E0FEA3E0FFE5BE5403FDEF4D40
:1001A700FFD082D083EEF0A3EFF0900042E004F09E
:1001B700E0C394024002E4F0900042E044A8F5BC9A
:1001C700D007D006D005D000D0D0D082D083D0E0E1
:0101D70032F5
:030000000201D822
:0C01D800787FE4F6D8FD75810902021F53
:1001E40002002EE493A3F8E493A34003F68001F203
:1001F40008DFF48029E493A3F85407240CC8C3331C
:10020400C4540F4420C8834004F456800146F6DFEA
:10021400E4800B01020408102040809002E4E47E94
:10022400019360BCA3FF543F30E509541FFEE493DF
:10023400A360010ECF54C025E060A840B8E493A3A6
:10024400FAE493A3F8E493A3C8C582C8CAC583CAD1
:10025400F0A3C8C582C8CAC583CADFE9DEE780BE89
:01030B0000F1
:00000001FF
