:030000000201F208
:0C01F200787FE4F6D8FD75812002023908
:1003A5004A0005C0F9A4B0999282F88090440012E1
:1003B500000000004100180141000F004100170036
:1003C50041001600420010000042000300004100F9
:1003D500020041000101C102C103C104C100C10104
:0403E50041000000D3
:1002EA00D2C1D2C2D2C3D2C430010B900001E07095
:1002FA00057580FF802230010590000D801790005F
:10030A0016E02412F582E43400F583E02405F58230
:10031A00E43400F583E0F580900016E014600E14D2
:10032A00600F1460102403700EC2C1800AC2C2801A
:10033A0006C2C38002C2C4900016E004F0E0C3946F
:06034A00044002E4F02271
:10041700538E7F5389F0E4F58A758CEEC28DD28CAA
:03042700D2A92235
:03000B000203EA03
:1003EA00C0E0C083C082C0D0758A00758CEE9000D0
:1003FA000FE004F0E0C394044007E4F0900017040F
:0D040A00F01202EAD0D0D082D083D0E032D0
:10042A00538EBF53890F758BB0758D3CC28FC28EA8
:03043A00D2AB2220
:03001B0002001EC2
:10001E00C0E0C0F0C083C082C0D075D000C000C0A8
:10002E0002C003C004C005C006C007758BB0758D35
:07003E003C2000030200D486
:10004500900000E004F0E0C3941450030200F6E4CD
:10005500F0D3900004E09400900003E09400406722
:10006500A3E024FFF0900003E034FFF0E0FAA3E002
:10007500FB7C037DE8FFAE021203507C007D0A1273
:100085000350900012EDF07C007D64AF03AE0212C8
:1000950003507C007D0A120350A3EDF0900003A3EA
:1000A500E07C007D0AFFAE021203507C007D0A123F
:1000B5000350900014EDF07C007D0AAF03AE0212F0
:0D00C5000350A3EDF0802AC200D201D28EBC
:1000D200802230011F900002E004F0E0C3940A4045
:1000E20013E4F0900001E070047F0180027F009031
:1000F2000001EFF0D007D006D005D004D003D00223
:0D010200D000D0D0D082D083D0F0D0E03239
:0F027E00900010E0FFA3E0900003CFF0A3EFF09B
:10028D00900003E0FAA3E0FB7C037DE8FFAE0212D1
:10029D0003507C007D0A120350900012EDF07C009B
:1002AD007D64AF03AE021203507C007D0A12035031
:1002BD00A3EDF0900003A3E07C007D0AFFAE0212D7
:1002CD0003507C007D0A120350900014EDF07C0069
:0D02DD007D0AAF03AE02120350A3EDF02224
:10010F007596FFE4F59575B4FFF5B37594FFF59308
:10011F00C2C1C2C2C2C3C2C412041712042AD2AFD0
:10012F0012028D900017E060FAE4F0E59020E207EC
:10013F00200236D202803230022FC20220002A2043
:10014F000127900011E004F07006900010E004F019
:10015F00D3900011E0940F900010E09427400774A3
:10016F0027F0A3740FF012027EE59020E30720031F
:10017F002DD2038029300326C20320002120011E27
:10018F00D3900011E09400900010E09400400CA375
:10019F00E024FFF0900010E034FFF012027EE590B3
:1001AF0020E40B300403020132D204020132200496
:1001BF0003020132C20430010BC20190000174012D
:1001CF00F012027ED3900004E09400900003E094BC
:1001DF00005003020132300003020132D200D28EEE
:0301EF00020132D8
:1001FE0002010FE493A3F8E493A34003F68001F207
:10020E0008DFF48029E493A3F85407240CC8C33301
:10021E00C4540F4420C8834004F456800146F6DFD0
:10022E00E4800B01020408102040809003A5E47EB8
:10023E00019360BCA3FF543F30E509541FFEE493C5
:10024E00A360010ECF54C025E060A840B8E493A38C
:10025E00FAE493A3F8E493A3C8C582C8CAC583CAB7
:10026E00F0A3C8C582C8CAC583CADFE9DEE780BE6F
:0103E9000013
:10035000BC000BBE0029EF8DF084FFADF022E4CC91
:10036000F875F008EF2FFFEE33FEEC33FCEE9DEC5A
:10037000984005FCEE9DFE0FD5F0E9E4CEFD22EDA0
:10038000F8F5F0EE8420D21CFEADF075F008EF2FEA
:10039000FFED33FD4007985006D5F0F222C398FDDB
:0503A0000FD5F0EA2278
:00000001FF
