:0300000002000EED
:0C000E00787FE4F6D8FD758120020055D3
:1001FB004A0000C0F9A4B0999282F8809041001295
:10020B000141000A004100110041000F00410010A4
:03021B0000C1001F
:10021F00538E7F5389F0E4F58A758CEEC28DD28CA4
:03022F00D2A9222F
:10017900D2C1D2C2D2C3D2C490000FE0FF240BF582
:1001890082E43400F583E02400F582E43400F58349
:10019900E0F580EF14600E14600F146010240370F2
:1001A9000EC2C1800AC2C28006C2C38002C2C49004
:0E01B900000FE004F0E0C394044002E4F022E2
:03000B000201C728
:1001C700C0E0C083C082C0D075D000C00790000ACD
:1001D700E004F0E0C394044007E4F090001104F059
:1001E700900012E06003120179D007D0D0D082D0FE
:0401F70083D0E0329F
:10009A007596FFE4F59575B4FFF5B37594FFF5937E
:1000AA00C2C1C2C2C2C3C2C412021FD2AF900011DF
:1000BA00E060FAE4F0E59020E507200017D200801E
:1000CA0013300010C200900010E004F0E0D3940F47
:1000DA004002E4F0900010E0FBFF7E007C037DE824
:1000EA001201247C007D0A12012490000BEDF0EB32
:1000FA0075F0648475F00A84A3E5F0F0900010E0CE
:10010A00FF75F00A8475F00A8490000DE5F0F0EFAF
:0A011A0075F00A84A3E5F0F080936D
:10001A0002009AE493A3F8E493A34003F68001F262
:10002A0008DFF48029E493A3F85407240CC8C333E7
:10003A00C4540F4420C8834004F456800146F6DFB6
:10004A00E4800B01020408102040809001FBE47E4A
:10005A00019360BCA3FF543F30E509541FFEE493AB
:10006A00A360010ECF54C025E060A840B8E493A372
:10007A00FAE493A3F8E493A3C8C582C8CAC583CA9D
:10008A00F0A3C8C582C8CAC583CADFE9DEE780BE55
:01021E0000DF
:10012400BC000BBE0029EF8DF084FFADF022E4CCBF
:10013400F875F008EF2FFFEE33FEEC33FCEE9DEC88
:10014400984005FCEE9DFE0FD5F0E9E4CEFD22EDCE
:10015400F8F5F0EE8420D21CFEADF075F008EF2F18
:10016400FFED33FD4007985006D5F0F222C398FD09
:050174000FD5F0EA22A6
:00000001FF
