:030000000200F902
:0C00F900787FE4F6D8FD758120020140FC
:1002FD004A0003C0F9A4B0999282F8809041001889
:10030D00004100010041000E00C100C10441000286
:10031D00004100000042001B000041000D004100A3
:10032D00190441001A0041001700C101C102C103A7
:10000E00538E7F5389F0E4F58A758CEEC28DD28CB7
:03001E00D2A92242
:03000B0002033EAF
:10033E00C0E0C083C082C0D0D200900001E004F0C3
:10034E0090000EE004F0C394044004E4F0D2049054
:10035E000001E0C394C8400C900000E06006A3E4E6
:0D036E00F0A304F0D0D0D082D083D0E032D4
:10026200900017E0FF2413F582E43400F583E024C4
:1002720003F582E43400F583E0F580D2C1D2C2D224
:10028200C3D2C4EF14600E14600F14601024037004
:100292000EC2C1800AC2C28006C2C38002C2C4901A
:0E02A2000017E004F0E0C394044002E4F022F0
:1001850090001BE0FAA3E0FB7C037DE8FFAE0212C2
:10019500020D7C007D0A12020D900013EDF07C002B
:1001A5007D64AF03AE0212020D7C007D0A12020DC2
:1001B500A3EDF090001BA3E07C007D0AFFAE0212C8
:1001C500020D7C007D0A12020D900015EDF07C00F9
:1001D5007D0AAF03AE0212020DAF05A3EFF090004A
:1001E500187401F0900013E0243090000FF0900097
:1001F50014E02430900010F0900015E024309000B9
:0802050011F0ED2430A3F022FA
:10037B0090001AE0701D90000DF090001A04F090A0
:10038B00000DE0FF04F0740F2FF582E43400F583C9
:04039B00E0F59922CE
:100026007596FFE4F59575B4FFF5B37594FFF593F2
:100036005392E35391E3759850438E40538EFE538B
:10004600890F758BE0758DFEC2ABD2ACD28E1200D5
:100056000ED2AF12018530000BC200900018E0608E
:1000660003120262300451C204E59020E207200127
:100076000FD201800B300108C2019000007401F01C
:10008600E59020E30720020ED202800A300207C262
:1000960002E4900000F0E59020E40720031AD20362
:1000A6008016300313C203E490001BF0A3F0900007
:1000B60000F012018512037B900002E06098900028
:1000C60000E06092E4900002F090001CE004F07002
:1000D6000690001BE004F0D390001CE0940F900003
:1000E6001BE094274004E4F0A3F012018512037B81
:0300F60002005CA9
:030023000202B026
:1002B000C0E0C083C082C0D075D000C007309802B3
:1002C000C29830992DC29990001AE06020900019D0
:1002D000E0FF90000DE0C39F5013E0FF04F0740FA7
:1002E0002FF582E43400F583E0F599800590001A3B
:0D02F000E4F0D007D0D0D082D083D0E0322F
:10010500020026E493A3F8E493A34003F68001F2EA
:1001150008DFF48029E493A3F85407240CC8C333FB
:10012500C4540F4420C8834004F456800146F6DFCA
:10013500E4800B01020408102040809002FDE47E5B
:10014500019360BCA3FF543F30E509541FFEE493BF
:10015500A360010ECF54C025E060A840B8E493A386
:10016500FAE493A3F8E493A3C8C582C8CAC583CAB1
:10017500F0A3C8C582C8CAC583CADFE9DEE780BE69
:01033D0000BF
:10020D00BC000BBE0029EF8DF084FFADF022E4CCD5
:10021D00F875F008EF2FFFEE33FEEC33FCEE9DEC9E
:10022D00984005FCEE9DFE0FD5F0E9E4CEFD22EDE4
:10023D00F8F5F0EE8420D21CFEADF075F008EF2F2E
:10024D00FFED33FD4007985006D5F0F222C398FD1F
:05025D000FD5F0EA22BC
:00000001FF
